:100000000C9433030C947A030C947A030C94E11C43
:100010000C947A030C947A030C947A030C947A036C
:100020000C947A030C947A030C9469240C943B2569
:100030000C94701F0C947A030C947A030C947A033A
:100040000C947A030C947A030C947A030C947A033C
:100050000C947A030C94E51F0C947A030C947A03A5
:100060000C947A030C947A030C947A030C947A031C
:100070000C947A030C947A030C947A030C947A030C
:100080000C947A030C947A030C947A030C947A03FC
:100090000C947A030C947A030C947A030C947A03EC
:1000A0000C947A030C947A030C947A031D061D06B3
:1000B00049064906B106CF06F407F407DA066F07CA
:1000C00080078007E407F407F407ED07980898080D
:1000D000AA08AA08A108AA08AA08AA0898089808BD
:1000E000A608AA08AA08A608A825CF25C726CF25AE
:1000F000C7261B263E26C7269526A42629001E00B5
:100100001F002000210022002B0014001A0009000B
:1001100013000500E10004001500160017000A0096
:10012000E0001D001B00060007001900E200085453
:1001300010502C0028000F55350027002600250000
:10014000240023002F0034001C0018000F000D00B5
:10015000330012000C00080011001000E500380008
:10016000370036000B000E00E600650017502A002D
:100170002900075501003A003B003C003D003E00CD
:1001800001001E001F0020002100220035001E0279
:100190001F022002210222020100010001000100D1
:1001A0000100010001000100010001000100010047
:1001B000440043004200410040003F00450027004A
:1001C00026002500240023003502270226022502EE
:1001D00024022302310030022F022E022D020000E1
:1001E00001000100010012500100010001000100A6
:1001F000010001000100010035000000F100ED00E8
:10020000F20000003A00B400EF00EE00F0003F0002
:1002100040004100F300B900F40045000100010076
:1002200001000100010001000100010001000100C6
:1002300001000100010000004A004B004E004D008B
:10024000000000004F00520051005000310030000B
:100250000000000000000000010001000100135038
:1002600001000100005C0000000000000000000030
:10027000C35CC65CC85CCA5C00000000C45CC75CB0
:10028000C95CCB5C00000000000000000000000022
:100290000000000001000100010001000100000059
:1002A000000000000000000000000000000000004E
:1002B0000000AB00AE00AC00000000000000AA008F
:1002C000A800A900000000000000000000000000DD
:1002D0000100010001000100010000000100010017
:1002E0000100010001000100010001000100010006
:1002F00001000100010001000100010001000100F6
:1003000001000100010001000100010001000100E5
:1003100001000100010001000100010001000100D5
:1003200001000100010001000100010001000100C5
:1003300001000100010001000100010001000100B5
:1003400001000100010001000100010001000100A5
:100350000100010001000100010001000100010095
:100360000100010001000100010001000100010085
:100370000100010001000100010001000100010075
:100380000100010001000100010001000100010065
:100390000100010001000100010001000100010055
:1003A0000100010001000100010001000100010045
:1003B0000100010001000100010001000100010035
:1003C0000100010001000100010001000100010025
:1003D0000100010001000100010001000100010015
:1003E0000100010001000100010001000100010005
:1003F00001000100010001000100010001000100F5
:1004000001000100010001000100010001000100E4
:1004100001000100010001000100010001000100D4
:1004200001000100010001000100010001000100C4
:1004300001000100010001000100010001000100B4
:1004400001000100000000000000000000000000AA
:1004500000000000000055005700000000000000F0
:10046000320222026200000001000100000054007C
:100470005600000001000100010001000100010020
:10048000000000000000000000000000000000006C
:10049000610060005F000000000020025E005D005F
:1004A0005C000000010001005B005A0059000000E0
:1004B00001000100125001000100010001000000D4
:1004C0000000200200000000010000002114640070
:1004D0002414220201001F1423021F0225022402F9
:1004E0000100010057001E02251400000100010058
:1004F00001000100010001000000000000003002C6
:1005000000000000000032002702640227143014AB
:10051000000000006414320026022D1401000100C6
:1005200038022D0226140000010001000100010024
:10053000010001000E034B0069006D0069006B00B3
:100540006F00000014034B00650079006300610038
:1005500070007300730073000000040309040902B3
:100560003B00020100A0FA090400000103010100A0
:100570000921110100012240000705810308000A3A
:1005800009040100010300000009211101000122FA
:100590007B000705820320000A1201000200000010
:1005A000088379694B01000102000105010902A1DC
:1005B0000185020901A10005091901290815002575
:1005C0000195087501810205010930093115812560
:1005D0007F95027508810609381581257F9501757B
:1005E000088106050C0A38021581257F95017508DA
:1005F0008106C0C005010980A101850319012AB740
:1006000000150126B700950175108100C0050C0981
:1006100001A101850419012AA002150126A0029555
:100620000175108100C005010906A101050719E047
:1006300029E71500250195087501810295017508C6
:1006400081010507190029FF150026FF0095067591
:100650000881000508190129059505750191029584
:100660000175039101C011241FBECFEFDAE0DEBF98
:10067000CDBF04B603FE27C08091B0029091B102B5
:10068000A091B202B091B3028730904BA740B04B1B
:10069000D1F41092B0021092B1021092B2021092F4
:1006A000B30214BE84B7877F84BF0FB6F894A895B1
:1006B00080916000886180936000109260000FBE9E
:1006C000E0E0F8E3099511E0A0E0B1E0EAE2FFE440
:1006D00002C005900D92AC3AB107D9F722E0ACEA1E
:1006E000B1E001C01D92A03BB207E1F70E945E1786
:1006F0000C9493270C94000081E0089581E0089504
:100700000C947E0308950C9482031F93CF93DF9380
:1007100000D000D01F92CDB7DEB749835A836B83D8
:100720003091AE0189819A81311114C0662359F04C
:10073000222349F00E943E0A182F682F89819A814E
:100740000E94E50903C00E94110A182F69817A816D
:10075000812F04C00E943E0A69817A810F900F9018
:100760000F900F900F90DF91CF911F910C94D610A6
:10077000FC01262F408151816281738184810C9418
:10078000850381E00895CF93DF93EC0160E00E9440
:10079000B803BE01DF91CF910C9483030E942D1307
:1007A0000E944C040C9467130C94631380E00C9427
:1007B0004D0408950C94D9030E9486080E94DA0320
:1007C0002FEF84E39CE0215080409040E1F700C08F
:1007D00000000C940B200F931F93CF93DF938C0199
:1007E00061E00E94B803EC01B8010E9480038823F5
:1007F000F1F1B801CE010E94EC1B8823C1F1B801D0
:10080000CE010E94161A882391F1B801CE010E94F0
:10081000481B882361F1F8018281882309F1CB35D7
:100820008DE5D807C1F050F4C115FCE5DF0781F074
:10083000CF3DDC45A9F40E94EC0F19C0CC35EDE5A5
:10084000DE0761F0CD35DD4559F40E94350F08C053
:100850000E94DC030CC00E943E0F02C00E94410FA8
:10086000C801DF91CF911F910F910C947C0380E020
:10087000DF91CF911F910F9108950C94D9030E949D
:100880006A1E0E944D040C943D0408950C94450486
:1008900081E008950C9448040895CF93C82F0E94D6
:1008A00046048C2F0E944A04CF910895CF93DF9382
:1008B000CDB7DEB72B970FB6F894DEBF0FBECDBF16
:1008C0004F83588769877A878B8761110E94810ED1
:1008D0009E012F5F3F4F86E0F90111928A95E9F75B
:1008E00085E0FE013796D90101900D928A95E1F7D6
:1008F00089819A814C815D81452B31F09F3F31F494
:1009000091E08F3F19F403C091E001C090E090FFA7
:1009100009C049815A816B817C818D819E810E94B1
:10092000A20D05C0C9010E94C1038111F2CF2B960F
:100930000FB6F894DEBF0FBECDBFDF91CF91089503
:10094000FC01808191810E94800A0895CF938823C1
:1009500009F4A4C0C82F8238C1F40E946A1E81FD28
:100960009DC069E380910201909103010E94041FE0
:100970000E94B30E2FEF81EE94E021508040904012
:10098000E1F700C0000069E319C0833801F50E9457
:100990006A1E80FD83C063E580910201909103018E
:1009A0000E94041F0E94B30E2FEF81EE94E02150AD
:1009B00080409040E1F700C0000063E580910201B3
:1009C000909103010E94061FCF910C94B30E8438BE
:1009D000C1F40E946A1E82FD61C067E48091020139
:1009E000909103010E94041F0E94B30E2FEF81EE2D
:1009F00094E0215080409040E1F700C0000067E49F
:100A0000DDCF8CEF8C0F813AD0F46C2F80910201F6
:100A1000909103010E94CE1E882349F06C2F809193
:100A20000201909103010E94061F0E94B30E6C2FD9
:100A300080910201909103010E94041FC5CF80E2C2
:100A40008C0F883048F4C77081E001C0880FCA95C8
:100A5000EAF70E94640EB8CFEBE5EC0FE33040F408
:100A6000F0E0EA59FE4F808190E0CF910C94961E01
:100A7000E8E5EC0FE73150F4F0E0EE0FFF1FE85C23
:100A8000FE4F80819181CF910C94AC1ECD3E30F011
:100A90008C2F0E94ED17CF910C94BF18CF91089521
:100AA000882309F464C0823879F40E946A1E81FFA9
:100AB0005EC069E380910201909103010E94041FCE
:100AC0000E94B30E69E310C08338B1F40E946A1E1D
:100AD00080FF4DC063E580910201909103010E9467
:100AE000041F0E94B30E63E58091020190910301FF
:100AF0000E94061F0C94B30E843879F40E946A1E7B
:100B000082FF35C067E480910201909103010E9449
:100B1000041F0E94B30E67E4E7CF9CEF980F913A51
:100B200010F4682FE1CF90E2980F983050F487705E
:100B300091E001C0990F8A95EAF7892F0E946A0E09
:100B4000D9CF9BE5980F933020F480E090E00C948F
:100B5000961E98E5980F973120F480E090E00C9471
:100B6000AC1E8D3E20F00E9448180C94BF180895CA
:100B70001F93CF93DF93182FEB010E94A6042097B9
:100B800041F08FE99FE00197F1F700C00000219745
:100B9000F6CF812FDF91CF911F910C9450058933AF
:100BA00019F060E070E002C060E570E00C94B805F8
:100BB000882321F00E94640E0C94B30E08958823BC
:100BC00021F00E946A0E0C94B30E0895CF92DF922A
:100BD000EF92FF920F931F93CF93DF937C01162F19
:100BE000C72FFC01D281058102950F700E945A0E19
:100BF0008823B9F0DD23A9F08C2F807F803421F089
:100C000080E2810F883068F08091870282FD09C000
:100C100082E00E94030F0E945A0E91E0D82ED9263E
:100C200001C0D12CCC2EC2948FE0C8228C2D90E034
:100C3000FC01EA5AFF4F0C9421278C2F807FCF7044
:100C4000882311F0C295C07FDD2399F0CC2309F4ED
:100C5000A6C180E2810F883010F0111104C08C2FE2
:100C60000E94640E03C08C2F0E94740E0E94B30E6B
:100C700096C1812F0E945005CC2309F4B5C180E2B2
:100C8000810F883038F1112329F18C2F0E947A0EC0
:100C900024C08C2F807FCF70803211F0C295C07F2E
:100CA000112319F01130A1F13DC08091870282FF1C
:100CB00017C0DD2349F0CC2329F08C2F0E94640E4D
:100CC0000E94B30E80E06CC180E00E945005CC23EE
:100CD00009F48AC18C2F0E946A0E0E94B30E84C14F
:100CE000DD2371F0002341F0013031F40E94940EB5
:100CF0008C2B0E949C0E78C10E94940E8C2B1DC0E0
:100D0000002319F0013009F46FC10E94A90E25C01B
:100D1000DD2321F0063008F067C10EC0053008F071
:100D200063C11BC0DD2361F0002331F0F701858131
:100D300080FF35C18F7085838C2F0E94D80554C1E8
:100D4000002359F0193309F03BC1FFEF27EE83E090
:100D5000F15020408040E1F731C18C2F0E94DF0527
:100D600043C18C2F86958695837019F0813061F090
:100D70003BC1DD2321F0812F9C2F937002C080E0C6
:100D800090E00E94961E38C1DD2321F0812F9C2F18
:100D9000937002C080E090E00E94AC1E2DC1812FB4
:100DA000DD2319F00E94ED1702C00E9448180E942E
:100DB000BF1822C18C2F837009F045C0D11118C112
:100DC000412F429546954770440F440F612F6F7035
:100DD000862F90E0A0E0B0E0042E04C0880F991F99
:100DE000AA1FBB1F0A94D2F714FF10C00FE010E037
:100DF00020E030E004C0000F111F221F331F4A956E
:100E0000D2F7009510952095309503C000E010E0D2
:100E10009801C695C695C370BC01CD01602B712B9E
:100E2000822B932BC23049F058F4C13019F00E9444
:100E3000FB08DEC00E94E908DBC00E940D09D8C093
:100E40000E94E708D5C0DD2319F08C2F817001C006
:100E50008695882309F4CCC0412F4295469547706A
:100E6000440F440F612F6F70862F90E0A0E0B0E038
:100E7000042E04C0880F991FAA1FBB1F0A94D2F723
:100E800014FF10C00FE010E020E030E004C0000FBD
:100E9000111F221F331F4A95D2F7009510952095F8
:100EA000309503C000E010E09801C695C695C37068
:100EB000BC01CD01602B712B822B932BC23049F0EA
:100EC00058F4C13019F00E94C00992C00E94AE09C6
:100ED0008FC00E94D2098CC00E94210989C0CF70A6
:100EE000DD2339F08C2F0E944709812F0E94D805FD
:100EF0007FC0812F0E94DF058C2F0E94680978C077
:100F0000123F21F128F4103F41F0113FC1F043C0DE
:100F1000133F19F1143F79F03EC0DD2341F0053055
:100F200008F062C08C2F8F710E948D095DC0063061
:100F300008F05AC0F7CF8091870282FF18C0DD23E6
:100F400039F08C2F8F710E9447094EC0DD23C9F301
:100F50008C2F8F710E94680947C0DD2329F08C2FE8
:100F60008F710E94320940C00E942D093DC0DD23CF
:100F700049F0CF718C2F0E94470963E08C2F0E94AB
:100F8000E80E32C081E00E94030F023068F182E077
:100F90000E94030F29C0DD2331F0002391F2812F3D
:100FA0000E94A60421C0002399F2193349F49FEF4F
:100FB000E7EEF3E09150E040F040E1F700C00000C0
:100FC000812F0E94500510C04C2F4F70612FC70118
:100FD0000E94D2100E94AE0A0FC04C2F4F70612F9A
:100FE000C7010E94D51008C088EF8C0D843020F412
:100FF0000E946A1E0E944D04DD20C9F00E94560E18
:1010000080FD15C0F70112820E94500E0E94470910
:10101000C7010E9438080E94500EDF91CF911F91A6
:101020000F91FF90EF90DF90CF900C946809DF91C3
:10103000CF911F910F91FF90EF90DF90CF90089587
:101040000F931F93CF93DF93EC01688179818A819D
:101050000E948B0A8C010E94E4090E94D508B80105
:10106000CE010E94E605DF91CF911F910F91089567
:10107000CF93DF93EC01988189812B813C81232BD5
:1010800031F08F3F31F481E09F3F19F403C081E0DC
:1010900001C080E080FD1DC0CE010E94EB038111E4
:1010A00010C00E945A0E8823A1F08A81882389F0FB
:1010B0008091870282FD0DC082E0DF91CF910C9478
:1010C000030FCE010E942008CE01DF91CF910C9436
:1010D000C303DF91CF91089580E090E00E94961EB7
:1010E00080E090E00E94AC1E0E94810E0E94910E52
:1010F0000E94B30E0E94F0190C94BF188091020157
:10110000909103010E94081F0C946C080E94710EBC
:101110000C947E08E92FE295EF704E2F50E0FA0113
:101120003297EE30F105B0F4EA59FF4F0C942127C5
:10113000803F91F018F4883E68F40EC0843F51F46B
:101140000BC0883E48F0813F29F406C093FB8827F6
:1011500080F9089580E0089581E00895FC01808180
:1011600091810E94800A0E948A080895CF93DF939C
:1011700000D000D01F92CDB7DEB70F900F900F9028
:101180000F900F90DF91CF910895CF93DF9300D010
:1011900000D000D0CDB7DEB726960FB6F894DEBFEC
:1011A0000FBECDBFDF91CF910895089508950C949F
:1011B000D6080C94D7080E94D9086093DB0170937D
:1011C000DC018093DD019093DE010C946C080C949B
:1011D000DB080F931F930091DB011091DC0120913C
:1011E000DD013091DE01602B712B822B932B1F913F
:1011F0000F910C94DB080F931F930091DB0110916A
:10120000DC012091DD013091DE0160237123822316
:1012100093231F910F910C94DB080F931F93009160
:10122000DB011091DC012091DD013091DE016027AE
:101230007127822793271F910F910C94DB080C9440
:10124000D6080E941F096093D7017093D80180933C
:10125000D9019093DA010C946C0860E070E0CB0146
:101260000C9421090F931F9341E050E060E070E07F
:101270008A019B0104C0000F111F221F331F8A9592
:10128000D2F7C901B8011F910F910C9421090F9356
:101290001F9341E050E060E070E004C0440F551F30
:1012A000661F771F8A95D2F78091D7019091D80158
:1012B000A091D901B091DA018A019B01082B192B69
:1012C0002A2B3B2BC901B8011F910F910C942109C6
:1012D0000F931F9341E050E060E070E004C0440FC2
:1012E000551F661F771F8A95D2F7409550956095D8
:1012F00070958091D7019091D801A091D901B091BA
:10130000DA018A019B01082319232A233B23C901FF
:10131000B8011F910F910C9421090F931F9341E085
:1013200050E060E070E004C0440F551F661F771F57
:101330008A95D2F78091D7019091D801A091D901D7
:10134000B091DA018A019B01082719272A273B2738
:10135000C901B8011F910F910C9421090F931F939C
:101360000091D7011091D8012091D9013091DA0173
:10137000602B712B822B932B1F910F910C942109C1
:101380000F931F930091D7011091D8012091D9019B
:101390003091DA0160237123822393231F910F91EF
:1013A0000C9421090F931F930091D7011091D8013C
:1013B0002091D9013091DA01602771278227932784
:1013C0001F910F910C9421090895292F220F920F3C
:1013D000990F890FE82FE695E695E695877051E01D
:1013E00001C0550F8A95EAF785E0E89FF0011124C6
:1013F000E155FE4F20E030E070E04081CB01022E4D
:1014000002C0969587950A94E2F7817081958427AA
:101410008523842781932F5F3F4F2530310569F75E
:101420000895292F220F920F990F890F682F669523
:1014300066956695982F977085E0689FB001112496
:1014400040E050E080E0FB01E40FF51FE155FE4F66
:10145000208130E0092E02C0369527950A94E2F7E4
:1014600021703327042E01C0220F0A94EAF7822B41
:101470004F5F5F4F4530510531F70895BF92CF92CE
:10148000DF92EF92FF920F931F93CF93DF938C0124
:10149000C090D701D090D801E090D901F090DA0146
:1014A0008091DB019091DC01A091DD01B091DE0122
:1014B000C82AD92AEA2AFB2ACFE1D0E0D701C601FF
:1014C0000C2E04C0B695A795979587950A94D2F7E8
:1014D00080FD04C0219790F7B12C07C0BC2EB80145
:1014E0008C2F0E940D120197A9F38B2DDF91CF91C4
:1014F0001F910F91FF90EF90DF90CF90BF900895D4
:10150000CF93DF93EC010E943E0ABE010E940D12B0
:10151000DF91CF9108951F93CF93DF93EB019091CB
:10152000AE01992321F0CB010E94800A13C08823C9
:1015300049F0CB010E943E0A182F682FCE010E946D
:10154000E50904C0CB010E94110A182FBE01812FAA
:101550000E940D12DF91CF911F910895EF92FF929B
:101560000F931F93CF93DF938C01892B09F46CC0E9
:10157000F12CEE24E394E8012196F801849184375C
:1015800040F4843008F051C0813081F0823019F18C
:101590005BC0853709F444C0A8F19CE7980F9037E9
:1015A00008F052C08F770E94500541C00E5F1F4F58
:1015B000FE01849190E2980F983050F48770FE2DD0
:1015C00001C0FF0F8A95EAF78F2F0E94840E14C086
:1015D0000E94A6042DC00E5F1F4FFE01849190E271
:1015E000980F983060F48770FE2D01C0FF0F8A9528
:1015F000EAF78F2F0E948A0E0E94B30E19C00E9434
:10160000500516C00E5F1F4FFE01C491CC2381F020
:101610008FE99FE00197F1F700C00000C150F6CFBD
:101620000E5F1F4FFE01F49003C00E94A6048E01BE
:101630008F2D882309F49FCFEFE9FFE03197F1F771
:1016400000C000008150F5CFDF91CF911F910F9125
:10165000FF90EF9008951F93CF93DF93C091DF0128
:1016600016E08091E001C81799F0D0E01C9FF001CE
:101670001D9FF00D1124EF51FE4F40815181628179
:101680007381848195810E94C5082196C770E9CF36
:10169000DF91CF911F910895409111025091120254
:1016A00060911302709114028091150290911602BC
:1016B0000C94C508EF92FF920F931F93CF93DF9383
:1016C0008091160282958F7009F065C08091130297
:1016D000882309F460C08091DF01F090E00110914F
:1016E000110200911202609114027091150291E0B2
:1016F0001F3F09F090E0C0910001D0910101292F16
:1017000096E0E92E8F1509F446C06115710521F0A8
:101710000F3F21F030E003C031E001C0322F90E0F4
:1017200030FD36C0E89EF001E99EF00D1124DF0186
:10173000AF51BE4F11963C911197301329C03C9187
:10174000311326C012963C911297311121C0139685
:101750004D915C911497461B570B4C175D07C0F4D5
:10176000809116028F70806180931602EA51FE4FBD
:1017700080818F708061808381E192E00E943808CF
:10178000DF91CF911F910F91FF90EF900C942B0B55
:1017900001968770B7CFDF91CF911F910F91FF9086
:1017A000EF9008959F92AF92BF92CF92DF92EF9207
:1017B000FF920F931F93CF93DF93CDB7DEB761975F
:1017C0000FB6F894DEBF0FBECDBF8C0185E0F801E7
:1017D000DE011D9601900D928A95E1F7D8011296CF
:1017E000EC9090911102E09112022091140230913C
:1017F00015022115310531F0EF3F31F481E09F3FB3
:1018000019F403C081E001C080E0B82FB1709B2EB5
:1018100080FD47C1D8014C9111965C9111971396A8
:10182000AD90BC90149781E1C82E82E0D82EF09044
:101830001302B501621B730B20910001309101016D
:10184000FF2009F4D9C0809116026217730708F0CF
:1018500095C0282F207F09F052C05E1313C0491392
:1018600011C0FE2CE1100EC08F70806180931602B3
:101870000E944C0BC6010E94380880911602F801A4
:1018800085834DC1AB2831F05F3F31F481E04F3F9C
:1018900019F403C081E001C080E080FD03C081E055
:1018A0008E2502C080E090E0F82FF170FF2E80FFBF
:1018B0001CC08091DF012091E00136E0821709F41D
:1018C0000BC190E0389FF001399FF00D1124EF51CA
:1018D000FE4F6181561306C06081461303C06281CA
:1018E000E61203C001968770E9CFFE2CEE2009F4C2
:1018F00016C18091160281608093160254C05E1357
:1019000006C0491304C0E11002C0F80199C0C80123
:101910000E94AE08882361F1EE2051F12091160259
:10192000822F82958F7090E0029774F0809111025F
:101930009091120298878F831986BB86AA862C877E
:10194000CE0107960E94380886E0F801A1E1B2E0D6
:1019500001900D928A95E1F70E945A0B0E944C0B60
:101960000AC05E1711F1C8010E94AE0881112CC097
:10197000C8010E943808FF24F394D1C0282F207F8B
:1019800081F77A2DB98AA88A6E2D89890E94B608B6
:1019900081E192E00E94380886E0D6011D928A9586
:1019A000E9F70E944C0BF12CBAC04913DCCFE110CF
:1019B000DACFF8018583C8010E94380886E0D60195
:1019C0001D928A95E9F7ABC0EE2091F220911602A4
:1019D000822F82958F7090E002970CF4B5CF8091A2
:1019E0001102909112029A8389831B82BD82AC827C
:1019F0002E83CE010196A6CF6217730708F044C06C
:101A0000FE2CEE2009F4B4CF5E1330C049132EC073
:101A10002091160220FD21C0822F82958F70482FC1
:101A200050E041155105C9F0F80125834F305105AB
:101A300041F08F5F982F9295907F822F8F70892B26
:101A40008583C8010E94380886E0F801A1E1B2E070
:101A500001900D928A95E1F73CC086E0F801A1E182
:101A6000B2E001900D928A95E1F759C0C8010E9439
:101A7000AE08811169CF80911602816080931602B1
:101A8000C8010E9438084BC07A2DB98AA88A6E2DE9
:101A900089890E94B60886E0D6011D928A95E9F7E9
:101AA00018C0EE2009F464CFC8010E94AE08F82ED9
:101AB000882309F45DCF86E0F801A1E1B2E001904E
:101AC0000D928A95E1F781E192E00E94A0040E94C4
:101AD0005A0B0E944C0B23C04D875E878D859E85D7
:101AE0000E94800A292F22952F70223028F49F709F
:101AF00039F0811105C00BC0243028F49F7049F4DF
:101B0000805E883020F0C8010E9438089F2CF92C94
:101B100006C0D80115969C91907F91F7F8CF8F2D34
:101B200061960FB6F894DEBF0FBECDBFDF91CF91A7
:101B30001F910F91FF90EF90DF90CF90BF90AF90EB
:101B40009F9008951F93CF93DF93CDB7DEB72C9767
:101B50000FB6F894DEBF0FBECDBF4F83588769879D
:101B60007A878B879C87CE0107960E94D20B8823A9
:101B7000D1F09F8188852A853B85232B31F08F3FCB
:101B800031F481E09F3F19F403C081E001C080E09F
:101B900080FD47C04F81588569857A858B859C85F6
:101BA0000E94C5083EC086E0FE013796DE01119610
:101BB00001900D928A95E1F7FF81E8856A857B8522
:101BC0006115710531F0EF3F31F481E0FF3F19F409
:101BD00003C081E001C080E080FD23C02091E001CE
:101BE00030E0C9010196877099274091DF0150E0EC
:101BF00084179507F1F1F983EA837D836C8396E07E
:101C0000929FD001939FB00D1124AF51BE4FFE01A2
:101C1000319601900D929A95E1F78093E0010E9430
:101C20002B0B16E08091DF019091E001891771F193
:101C3000189FC00111248F519E4F0E94D20B882300
:101C400029F1E091DF011E9FF0011124EF51FE4FB9
:101C50004081518162817381848195810E94C50890
:101C60008091DF0190E00196877099278093DF01D2
:101C7000D9CF0E9486081092E0011092DF01E1E1C5
:101C8000F2E086E0DF011D928A95E9F72C960FB607
:101C9000F894DEBF0FBECDBFDF91CF911F910895A5
:101CA00080911702859585958595089580911702F5
:101CB0008770089590911702977081E009F480E091
:101CC000089580912302089590912302892B809397
:101CD0002302089580959091230289238093230203
:101CE000089510922302089590912202892B8093E7
:101CF00022020895809590912202892380932202E6
:101D0000089510922202089590912102892B8093C8
:101D100021020895809590912102892380932102C8
:101D2000089510922102089580911802089508954F
:101D30000C94970E0C94980E9091870292FD08C017
:101D400090911802981721F0809318020C949A0E23
:101D5000089580911802882329F01092180280E0DB
:101D60000C949A0E0895E0910201F0910301809184
:101D700023028083E0910201F09103019081809120
:101D80002202892B8083E0910201F091030190816E
:101D900080912102892B808380911802882381F011
:101DA000E0910201F09103019081892B8083809161
:101DB0000201909103010E94C21E81110E94A90E8E
:101DC00080910201909103010C947D1E0C94970E5A
:101DD0009091870292FD10C098E0899F9001112494
:101DE000262B209317020E944709809117028595A0
:101DF000859585950C94E60E0C9447091092170270
:101E000080E00C94E60E2091170280958223809347
:101E10001702982F977099F430E0482F082E000C85
:101E2000550B2417350759F09091870292FD07C092
:101E30008595859585950E9468090C94FE0E0895F8
:101E40009091870292FB222720F9281769F080FBE6
:101E500092F99093870280918602909187020E9466
:101E6000680F82E00C94030F08958091870282FB33
:101E7000882780F991E089270C94200F81E00C9449
:101E8000200F80E00C94200F80E090E00E94592702
:101E900021E0893E9E4F09F020E0822F089582E0E4
:101EA00090E00C94512783E090E00C945127CF935D
:101EB00084E090E00E945127C82F82E290E00E94C7
:101EC00051272C2F30E0A901582BCA01CF9108953A
:101ED000CF93C92F682F84E090E00E945F276C2F7A
:101EE00082E290E0CF910C945F27AB01BC018FE0C0
:101EF00090E00C947127AB01BC0183E190E00C945D
:101F0000712760E070E0CB010C947B0F60E070E023
:101F1000CB010E94750F0C94810F69EE7EEF80E07B
:101F200090E00E947D2760E082E090E00E945F27C1
:101F300060E083E090E00E945F271092DB01109246
:101F4000DC011092DD011092DE0160E084E090E09F
:101F50000E945F2760E082E290E00E945F2760E0DD
:101F600085E090E00E945F2760E086E090E00E94BC
:101F70005F276FEF87E090E00E945F2740E050E02E
:101F8000BA0188E090E00E94712760E08DE090E067
:101F90000E945F2740E050E0BA0188E190E00E9493
:101FA000712760E087E190E00E945F2740E050E009
:101FB000BA018CE190E00E94712760E070E080E25D
:101FC00090E00E947D2740E050E0BA0188E190E077
:101FD0000E9471270C94860F0C948D0F682F8EE051
:101FE00090E00C945F270E94AE1F609333027093C1
:101FF0003402809335029093360260932F027093DF
:1020000030028093310290933202089585B7806840
:1020100085BF85B7806885BF08950C942015089505
:102020000C940F100C940F100C9412100C940F10B1
:102030000C9416100C940F100E9406108AE293E183
:102040000E94601E0E941A100C9418100E9410101A
:102050000C940F100E94991F0E94E9120E9407140D
:102060000E94FE190C9414109F92AF92BF92CF92CF
:10207000DF92EF92FF920F931F93CF93DF93CDB731
:10208000DEB72A970FB6F894DEBF0FBECDBF0E9411
:10209000951481110E94F30F85E2A82E82E0B82EDC
:1020A00000E010E0902E802F0E945113D82EF501F1
:1020B000C1905F01C826B1F40F5F1F4F0A301105B0
:1020C00089F78FEF89838A831B820E94A21F816018
:1020D000782F9D838C8349815A816B818D810E94E9
:1020E00056042FC08091370281FD0E945713E12CC6
:1020F000FF24F3948C2D8F21F1F00E940D10882382
:1021000099F0EE829F82DF2081E009F480E08887E9
:102110000E94A21F8160782F9A8789874E815F81F4
:1021200068858A850E945604F801EB5DFD4F808129
:10213000F826F08206C0E394FF0CF6E0EF12DACF47
:10214000BBCF0E94DD180E946A1E9091240289175D
:10215000B9F00E946A1E809324022A960FB6F89462
:10216000DEBF0FBECDBFDF91CF911F910F91FF90CA
:10217000EF90DF90CF90BF90AF909F900C944D0464
:102180002A960FB6F894DEBF0FBECDBFDF91CF9178
:102190001F910F91FF90EF90DF90CF90BF90AF9085
:1021A0009F90089580E090E0089508952CE3829F29
:1021B000C0011124FC0126E0729FE00DF11D1124E5
:1021C000E60FF11DEE0FFF1FE450FF4F8591949134
:1021D0000895880F991FFC01EC5CFA4F859194914A
:1021E0000895CF93DF930E941212EC01811520E530
:1021F000920708F03FC0811540E4940708F0D2C070
:10220000883E910500F5803E910508F002C1883AAC
:10221000910570F4853A910508F0A6C081309105CA
:1022200009F49FC008F4F2C0049708F0F2C0EEC0B1
:102230008F3B910508F4A1C0803C910508F4E6C0ED
:10224000805C9109A5C0811550E2950760F4C11525
:1022500081E0D80708F0DDC0CD3ED10508F4D6C036
:10226000CE019065D7C0811520E3920708F093C096
:102270009F708EC0811545E5940708F046C0811512
:1022800054E5950708F0A6C0C11582E5D80718F5F2
:10229000C11521E5D20708F088C0CE01F4E096957B
:1022A0008795FA95E1F7282F23703C2F337081E052
:1022B00090E002C0880F991F3A95E2F79C68922B34
:1022C0002C2F2F702695269540E2249F90011124F3
:1022D000822B932B9FC09E01237033279C2F9695B2
:1022E0009695C115D34508F065C041E050E002C0A5
:1022F000440F551F2A95E2F780E2989F9001112420
:10230000CA01822B932B9C6885C0811559E59507DE
:1023100098F4C11588E5D80708F061C0C11526E515
:10232000D20708F073C08C2F0E94A6128F7190E024
:10233000982F882790626EC081154AE5940708F4AB
:1023400053C090568115904208F060C08D2F8F7158
:102350000E94A6129E01332730628F71A901582B6B
:1023600053C081E090E056C0855AC82FD0E0C956CE
:10237000DE4F888190E090644DC0885AC82FD0E02D
:10238000CC0FDD1FC759DE4F88819981946442C00C
:102390000E94E9103FC09927D3FF02C0986C3AC051
:1023A000906C38C09F70906A35C09C2F8827816FD1
:1023B000906A30C041E050E002C0440F551F2A959A
:1023C000E2F780E2989F90011124CA01822B932B9F
:1023D0009A6820C0982F8827846F906A1BC09C2F12
:1023E0008827806F906A16C08F700E94A6129E0187
:1023F00094E0369527959A95E1F72F7030E0322FCB
:1024000022273069A901482BCA0104C080E090E06E
:1024100001C0CE01DF91CF9108950E94D6100E9495
:10242000F11008958238910569F1B0F48133910576
:1024300009F46DC048F48932910509F463C08A3209
:10244000910509F469C008958533910509F455C0D3
:1024500089339105B9F00895833E910569F138F407
:10246000803E9105B1F0823E910509F10895863EC6
:102470009105A9F1873E9105B9F1843E910509F0D6
:1024800064C023C02091860220FD4FC021FD4DC0B5
:1024900008958091860280FD44C08091870280FF6C
:1024A00044C08091860284FD42C083EE4DC080917D
:1024B000860282FF38C0F5CF8091860282FD33C04C
:1024C0008091870280FD31C0ECCF8091870281FF2F
:1024D00032C08091860284FD2AC087EE35C080918B
:1024E000860283FF26C0F5CF8091860283FD21C03E
:1024F0008091870281FD1FC0ECCF8091860285FD0F
:102500001CC01DC08091860285FD19C016C0809137
:10251000860286FD16C017C08091860286FD13C014
:1025200010C089E311C082EE0FC080EE0DC080E0C4
:102530000BC086EE09C084EE07C089E205C085E3C2
:1025400003C08AE201C081E390E008959091860281
:1025500092FF0DC0282F2871283019F4877F8460DE
:1025600006C0282F2471243011F48B7F886093FFDC
:102570000DC0282F2871283119F4877E846106C088
:10258000282F2471243111F48B7E886120918702D9
:1025900020FF0DC0382F3871383019F4877F8160E3
:1025A00006C0382F3171313011F48E7F886021FFE1
:1025B0000DC0282F2871283119F4877E816106C04B
:1025C000282F2171213111F48E7E886194FD877E40
:1025D0000895109282021092830210928402109247
:1025E00085020895CF92DF92EF92FF926B017C01FA
:1025F0000E94201581110EC00E94AE1FC61AD70A74
:10260000E80AF90AC0928202D0928302E092840220
:10261000F0928502FF90EF90DF90CF9008950F9396
:102620001F930E942015882321F01F910F910C9475
:10263000AE1F0E94AE1F0091820210918302209172
:10264000840230918502600F711F821F931F1F91BA
:102650000F91089580E0089508950E94440F81111C
:1026600002C00E94EC0F0E944F0F809337020E941D
:10267000570F90938702809386020E942C130E942A
:10268000530F682F70E080E090E00E94E7086091AF
:10269000D7017091D8018091D9019091DA010C9401
:1026A0001F09E82FF0E0EE56FD4F80810895089550
:1026B00080EA8A95F1F7089500C008950C945813A4
:1026C00008950C9460130C9461130C9460130C9493
:1026D0006513F894E82FE295EF70F0E031A1282F10
:1026E0002F7081E090E001C0880F2A95EAF7982FBB
:1026F0009095932391A392A1892B82A37894089516
:1027000008950C9480130F931F93CF93DF93C0EA27
:10271000D1E089918F3F11F00E94691381E0C53AA1
:10272000D807B9F7CAE9D1E000EA11E089918F3FF3
:1027300011F00E9469130C171D07C1F7DF91CF91AB
:102740001F910F910895CF92DF92EF92FF920F9316
:102750001F93CF93DF938C01C62FD0E0CE0180561C
:102760009E4F7C01FC0190819F3F09F447C0D62E0B
:10277000F894E92FE295EF70F0E081A19F7021E0DD
:1027800030E001C0220F9A95EAF7822B81A382A143
:102790002095282322A378940E945C13EAE9F1E0B3
:1027A00040EA51E031E0C12C21912F3F89F0A22F66
:1027B000A295AF70B0E090968C9190E02F7002C01F
:1027C000959587952A95E2F780FD02C0832F01C079
:1027D00080E0C82A330F4E175F0731F7F701808179
:1027E0008F3F11F00E94691361E0C11001C060E0E9
:1027F0008D2D0E945E13C00FD11FC882DF91CF9133
:102800001F910F91FF90EF90DF90CF9008950E945D
:102810003A158091040180910401811102C095E074
:1028200001C090E090939D0285E0891B80939C02FB
:102830000E9483138AE0E2E9F2E0DF01982F1D9203
:102840009A95E9F7E8E8F2E0DF011D928A95E9F749
:1028500085E00E94E9140E94CE030C944415FF9277
:102860000F931F93CF93DF9300D000D01F92CDB76B
:10287000DEB70E94201560919D028823E9F185E072
:10288000F82E8E010F5F1F4FF8018F2D11928A9540
:10289000E9F7862F90E0B8018E569D4F0E945215A1
:1028A000882389F080919C0290E045E050E0B801D7
:1028B0008E569D4F0E943B2721E020933802892BA2
:1028C00061F410E016C0809138028823D1F3F8013A
:1028D0001192FA94E9F710923802A0919C02B0E0AC
:1028E000AE56BD4F85E0F80101900D928A95E1F753
:1028F00011E00E94D4030DC070E06E567D4F8091B0
:102900009C0290E08E569D4F0E94E2150E9481131A
:1029100010E0812F0F900F900F900F900F90DF918C
:10292000CF911F910F91FF900895EF92FF920F9317
:102930001F93CF93DF93CDB7DEB72A970FB6F894E6
:10294000DEBF0FBECDBF8E010F5F1F4F8AE0F801C3
:1029500011928A95E9F7F12C6F2DC8010E94A313FB
:10296000F394F5E0FF12F8CF4AE050E0B80188E8B0
:1029700092E00E943B277C0121E0892B09F420E0B2
:10298000E114F10441F08AE0F801A8E8B2E0019016
:102990000D928A95E1F760919D0270E06E567D4F31
:1029A00045E088E892E00E94EA14EF2819F40E94BA
:1029B0002F1402C081E090E02A960FB6F894DEBF93
:1029C0000FBECDBFDF91CF911F910F91FF90EF9080
:1029D00008950895FF920F931F93CF93DF938C0177
:1029E000F62ED72FC42F222349F081E080933B029B
:1029F0000E94A21F90933A028093390280913B0279
:102A00008823C1F08091390290913A020E94BA1F46
:102A1000059780F0EF2DFD2FD8014C2F50E0CD0110
:102A2000801B910B841795071CF48D918193F7CF30
:102A300010923B02DF91CF911F910F91FF9008956B
:102A400080913E0281110DC00E940027811102C0B9
:102A500082E001C081E080933E02823011F40E9446
:102A6000FB2681E090913E02913009F080E00895CC
:102A70000C9420150E943815809304010E942015A3
:102A800081110C948A1508950E942015811102C0AD
:102A90000C948C15089581E090913F029A3008F0D3
:102AA00080E008950F931F93CF93DF93EC018B0188
:102AB00080913F028A3038F4B801CE010E94E015BF
:102AC00081111DC00AC080913C0290913D020E947C
:102AD000BA1F843F914080F715C080913F028F3F1D
:102AE00019F08F5F80933F0280913F028A3060F03F
:102AF0000E94A21F90933D0280933C0203C010925B
:102B00003F0202C080E001C081E0DF91CF911F91C0
:102B10000F9108950C949B1C0C949E1CEF92FF92B5
:102B20000F931F93CF93DF937901C82F880FDD0B8D
:102B300041155105A9F08AE08C9FF0018D9FF00DA1
:102B40001124EB5FFE4F83819481805C9D4F228135
:102B500030E04217530708F49A01A9010E94482760
:102B6000CE010E94A81D892B09F50115110501F15F
:102B70008AE08C9FF0018D9FF00D1124EB5FFE4FDA
:102B8000458150E00417150708F4A8018AE08C9FDE
:102B9000F0018D9FF00D1124EB5FFE4F6681778170
:102BA000605C7D4FC7010E94482702C080E001C0E1
:102BB00081E0DF91CF911F910F91FF90EF900895E9
:102BC0000C94FC160C9418170F931F93CF93DF935C
:102BD00000D000D0CDB7DEB7609157027091580297
:102BE0008091590290915A020E94C91F6436710562
:102BF0008105910528F10E940F13DC01CB0102969B
:102C0000A11DB11D89839A83AB83BC8300E010E0D2
:102C100020E030E044E050E0BE016F5F7F4F82E093
:102C20000E948E15182F882361F00E94AE1F6093BA
:102C30005702709358028093590290935A0201C030
:102C400011E0812F0F900F900F900F90DF91CF9197
:102C50001F910F910895AF92BF92CF92DF92EF92A2
:102C6000FF920F931F93CF93DF937C015B016A0167
:102C70000E944B15811103C001E010E002C00AE080
:102C800010E0C1E0D0E0F894B501C701F601099564
:102C90007894811115C021960C171D0794F0CC9FD4
:102CA0009001CD9F300D300D112480E090E045E380
:102CB0004A95F1F70000019682179307C1F7E3CF19
:102CC00081E0DF91CF911F910F91FF90EF90DF9006
:102CD000CF90BF90AF900895AF92BF92CF92DF9206
:102CE000EF92FF920F931F93CF93DF9300D000D00A
:102CF00000D0CDB7DEB77B01C090AA01D090AB0168
:102D000001E010E09E012A5F3F4F40E050E060E0AC
:102D100070E080E00E948E15182F882309F43EC0D1
:102D200056018FEFA81AB80A6091530270915402AD
:102D300080915502909156020E94C91F6436710518
:102D40008105910518F105E010E09E012F5F3F4FCE
:102D500040E050E060E070E081E00E948E15182FA6
:102D600065E070E0C5010E94FF1991E02E812813F3
:102D700090E0192339F10E94AE1F609353027093C3
:102D80005402809355029093560211C065E070E0A2
:102D9000C5010E94FF199E818913D5CF85E0F601F8
:102DA0003196DE01119601900D928A95E1F711237B
:102DB00049F085E0FE013196AEE4B2E001900D925B
:102DC0008A95E1F785E0EEE4F2E0D70101900D92FB
:102DD0008A95E1F7812F26960FB6F894DEBF0FBED5
:102DE000CDBFDF91CF911F910F91FF90EF90DF90BA
:102DF000CF90BF90AF9008950F931F93CF93DF9321
:102E0000EC018B014CE656E10E942B16882351F011
:102E100044EE55E1B801CE01DF91CF911F910F91A2
:102E20000C942B1680E0DF91CF911F910F910895A4
:102E30000F931F93CF93DF93F894C091AA01D09181
:102E4000AB01CE01019625E0FB01DC0101900D9262
:102E50002A95E1F765E070E00E94FF198883789475
:102E6000F8946E817F818885998500914A0210913E
:102E70004B0220914C0230914D026017710782077E
:102E8000930751F060934A0270934B0280934C0277
:102E900090934D020E94F2127894DF91CF911F918E
:102EA0000F9108950E94C1210E942A100C94CD21F7
:102EB0000E94D1210E9434100C94EB210E94291F02
:102EC0000E94A8210E941C100E9452170E945817AD
:102ED0000E942610FBCF8091610280FF0BC06091A1
:102EE000280185E0689FB001112475956795759557
:102EF00067952BC081FF09C06091280185E0689F1C
:102F0000B00111247595679520C082FF07C06091BC
:102F1000280185E0689FB001112417C090916002DC
:102F20009923D1F060912701961788F72091280105
:102F300085E0289F90011124929FA001939F500D3E
:102F4000112470E0CA010E940D276038710540F419
:102F50006115710519F406C065E070E0862F0895CB
:102F60008FE7089581E008958091610280FF08C095
:102F70006091240170E0759567957595679521C0FE
:102F800081FF06C06091240170E07595679519C0B6
:102F900082FF04C06091240170E010C090915F0234
:102FA000992399F0609123019617A0F7809124014D
:102FB000899FC001112470E00E940D2760387105BF
:102FC00040F46115710519F406C061E070E0862FC8
:102FD00008958FE7089581E008958D3E21F40E94C1
:102FE0006B17819504C08E3E29F40E946B17809365
:102FF000650208958F3E21F40E946B17819504C0ED
:10300000803F29F40E946B17809364020895893FE2
:1030100019F40E94B41705C08A3F31F40E94B41716
:1030200081958093660208958B3F21F40E94B41726
:10303000819504C08C3F29F40E94B41780936702E5
:1030400008959FE0980F983078F421E030E0A901CE
:1030500002C0440F551F9A95E2F7CA01909163028E
:10306000892B8093630208958D3F21F48091610242
:1030700081600BC08E3F21F480916102826005C0A7
:103080008F3F29F4809161028460809361020895EA
:103090008D3E39F49091650297FF35C0109265021C
:1030A00059C08E3E29F4909165021916BCF32BC0CD
:1030B000909164028F3E29F497FF25C0109264021C
:1030C00049C0803F19F41916CCF31DC090916602D7
:1030D000893F29F41916BCF4109266023BC08A3F5E
:1030E00019F497FF10C0F8CF8B3F39F49091670225
:1030F00097FF09C0109267022DC08C3F21F4909178
:1031000067021916BCF39FE0980F983080F421E015
:1031100030E0A90102C0440F551F9A95E2F7CA0199
:1031200080959091630289238093630213C08D3F41
:1031300021F4809161028E7F0BC08E3F21F480913B
:1031400061028D7F05C08F3F29F4809161028B7FE2
:103150008093610280916402811106C080916502B2
:10316000811102C01092600280916602811106C036
:1031700080916702811102C010925F0208950E943F
:10318000A21F20916402211104C020916502222314
:1031900021F090935E0280935D02209166022111DE
:1031A00004C020916702222321F090935C02809357
:1031B0005B0282E692E00C94881EEF92FF920F93DE
:1031C0001F93CF93DF9300D000D000D0CDB7DEB7F0
:1031D00086E0E2E6F2E0DE01119601900D928A951A
:1031E000E1F7E0906402F0906502009166021091B0
:1031F00067021092640210926502109266021092A9
:103200006702E11003C0FF2009F45DC080915D02F8
:1032100090915E020E94BA1FAC01909160029923C6
:1032200039F02091290130E02417350758F04BC0C0
:1032300020912A018AE0289F900111242417350744
:1032400018F041C09F3F19F09F5F90936002EE20FD
:1032500061F00E946B171E1414F09FEF01C091E003
:10326000989F902D112490936402FF2061F00E949A
:103270006B171F1414F09FEF01C091E0989F902DE1
:10328000112490936502309164023323E1F0209180
:1032900065022223C1F045EB3403C00111249923B8
:1032A00019F09093640203C081E08093640235EBCF
:1032B0002303C0011124992319F09093650203C0E0
:1032C00081E080936502011103C0112309F45DC000
:1032D00080915B0290915C020E94BA1FAC019091B8
:1032E0005F02992339F02091250130E0241735073A
:1032F00058F04BC0209126018AE0289F90011124AC
:103300002417350718F041C09F3F19F09F5F909335
:103310005F02002361F00E94B417101614F09FEFB3
:1033200001C091E0989F902D112490936602112383
:1033300061F00E94B417111614F09FEF01C091E0E4
:10334000989F902D11249093670230916602332349
:10335000E1F0209167022223C1F045EB3403C00164
:103360001124992319F09093660203C081E08093A1
:10337000660235EB2303C0011124992319F09093C1
:10338000670203C081E0809367028091640281112B
:103390000BC080916502811107C080916602811186
:1033A00003C08091670281110E94BF18EB82FC82EA
:1033B0000D831E8386E0FE013196A2E6B2E0019005
:1033C0000D928A95E1F726960FB6F894DEBF0FBEF0
:1033D000CDBFDF91CF911F910F91FF90EF90089596
:1033E000E2E6F2E086E0DF011D928A95E9F71092AD
:1033F000600210925F021092610208950895FC012C
:10340000680F791F8FEF91E3E617F70771F02191AD
:10341000822728E030E087FF03C0880F892701C09A
:10342000880F21503109B9F7EFCF0895CF93DF937B
:10343000EC01FB018281882309F426C1C430FDE53B
:10344000DF0760F4CB3F9CE5D90768F49E0122506A
:103450003C452431310508F018C105C0C236EDE500
:10346000DE0709F012C10E94570F909387028093E4
:103470008602C031FCE5DF0709F4CAC008F041C08C
:10348000C8309CE5D90709F4A4C0F0F4C430FCE5C9
:10349000DF0709F48CC068F4C2309CE5D90709F451
:1034A00082C0C330DC4509F0E5C0809186028260AD
:1034B000DFC0C630FCE5DF0709F483C008F085C033
:1034C000809186028860D4C0CC309CE5D90709F48D
:1034D00090C068F4CA30FCE5DF0709F47EC008F04C
:1034E00084C00E948608809186028068C1C0CE3068
:1034F0009CE5D90709F481C008F086C08091860256
:1035000094C0CD3FFCE5DF0709F47BC038F5C4313A
:103510009CE5D90709F49AC058F4C231FCE5DF07ED
:1035200009F47AC008F07EC0809186028F7BA0C02B
:10353000CB3F9CE5D907F1F108F03FC0C531DC4530
:1035400009F098C08091860282FB222720F991E041
:10355000922790FB82F990FB83F98AC0C1308DE5F8
:10356000D80709F467C050F480918702CF3FECE59B
:10357000DE07C1F108F05BC08D7F65C0C3308DE50B
:10358000D80709F471C008F46DC0C236DD4509F0F2
:1035900071C08091860284FB222720F991E0922756
:1035A00090FB84F965C080918602816061C0809142
:1035B000860216C08091870216C0809187028260C1
:1035C00042C080918602806153C0809186028062F1
:1035D0004FC08091860280644BC0809186028860D3
:1035E000846046C0826081602EC0809186028E7F9A
:1035F0003FC0809186028D7F3BC080918602877F8D
:1036000037C08091870214C0809186028F7E30C0BF
:10361000809186028F7D2CC00E9486088091860250
:103620008F7726C080918602877F8B7F21C08D7F18
:103630008E7F09C080918702982F909591708E7F20
:10364000892B90FB81F98093870214C00E94860821
:103650008091860287FB222720F991E0922790FB38
:1036600087F906C081E001C080E00E94EE0F02C031
:103670008093860280918602909187020E94680F53
:103680000E94860880E001C081E0DF91CF9108951B
:10369000CF93DF9386319C4541F5EB010E94610E8B
:1036A000982F8A812091020130910301882379F0BB
:1036B0009A7A81E009F480E080936802911102C057
:1036C00069E201C065E3C9010E94041F0AC080913C
:1036D0006802811102C069E201C065E3C9010E946C
:1036E000061F0E94B30E80E001C081E0DF91CF9100
:1036F00008950F931F93CF93DF93C42FD22FFC0114
:1037000082818823C9F040936B020E94A21F90938C
:103710006A028093690280E28C0F883008F057C0FB
:10372000C77081E001C0880FCA95EAF7DF91CF9199
:103730001F910F910C94D80580916B02481330C0F3
:103740008091690290916A020E94BA1F883C91059B
:1037500038F510E21D0FCD17B9F080E28C0F8830DC
:1037600040F4C77081E001C0880FCA95EAF70E9453
:10377000DF05183028F581E09D2F977001C0880F74
:103780009A95EAF70E94D805802F0E94CF0518303D
:10379000F0F4D77081E001C0880FDA95EAF70AC02B
:1037A00080E28C0F883098F4C77081E001C0880FE8
:1037B000CA95EAF7DF91CF911F910F910C94DF0525
:1037C000802FDF91CF911F910F910C94CF05DF9146
:1037D000CF911F910F9108950F939C01CB01243F2E
:1037E0004CE5340731F188F4293DFCE53F07D9F079
:1037F0002A3D4CE5340779F1283D3C45A9F506E220
:1038000021EE41EE68ED7CE52BC0263FFCE53F074D
:10381000E1F0A8F0273F3C4539F507E225EE46EEFA
:1038200067EF7CE51DC007E225EE45EE69ED7CE51E
:1038300017C006E221EE40EE64EF7CE511C007E21E
:1038400025EE44EE65EF7CE50BC006E221EE42EE8C
:1038500066EF7CE505C008E221E045EE6AED7CE517
:103860000E94791B80E008C0FC018281882319F046
:1038700010926B0201C081E00F9108958EE14A9B86
:1038800002C08150E1F74A9BFECF08955A9880E22A
:103890008A95F1F75A9A0895FC012AE02A95F1F7E2
:1038A00028E090E080E031E040E14A95F1F7880FB0
:1038B0004A9B02C08160932700C0000040E14A9506
:1038C000F1F7215089F720E12A95F1F729B100C0DD
:1038D000000030E13A95F1F722FB222720F99227E8
:1038E0002081920F90830895EF92FF920F931F9380
:1038F000CF93DF931F92CDB7DEB719828C017C0185
:10390000E60EF11C0E151F0551F00E943E1CCE0163
:1039100001960E944C1CF80181938F01F3CF81E046
:103920009981911180E00F90DF91CF911F910F91BC
:10393000FF90EF900895529A5A9A089552985A9A81
:10394000EA9AE9E6F0E080818F7C808308956150F7
:1039500091E001C0990F6A95EAF720E031E09923E0
:1039600061F0492F482319F05A9A232701C05A9829
:1039700040E24A95F1F79695F2CF222311F05A9A38
:1039800001C05A9880E28A95F1F75A980895FF92FB
:103990000F931F93CF93DF93EC018C01060F111D42
:1039A000C017D10741F0F9900E94461C68E08F2DA6
:1039B0000E94A71CF5CFDF91CF911F910F91FF902F
:1039C00008951F920F920FB60F921124EF92FF925B
:1039D0000F931F932F933F934F935F936F937F9317
:1039E0008F939F93AF93BF93EF93FF93CF93DF9307
:1039F0001F92CDB7DEB719820E943E1CCE01019600
:103A00000E944C1CA82FA695A695A6959A2F969530
:103A100095702A2F2570920F292F237096959695D1
:103A2000920F877089137CC08981811179C0A4307D
:103A300008F076C080E18A95F1F75A9A529AB2E07E
:103A4000BA95F1F700C05A98EA2EF12CEAE0AE9F41
:103A5000D0011124AB5FBE4F1896ED91FC911997E0
:103A60003097B1F06091AA017091AB0116962D913B
:103A70003C911797260F371F13968D919C911497A1
:103A8000680F791F15964C91159712968C91099590
:103A90008AE08E9DF0018F9DF00D1124EB5FFE4FAB
:103AA0006581662351F08091AA019091AB01268136
:103AB0003781820F931F0E94C71C0E94461CF0E1B1
:103AC000FA95F1F75A9852985A9A80E18A95F1F747
:103AD0008AE08E9D80018F9D100D11240B5F1E4F7B
:103AE000D80112966C911297662399F08091AA01E1
:103AF0009091AB0113962D913C911497820F931FD7
:103B00000E94741CD801ED91FC91811105C082E0E6
:103B100004C0D801ED91FC9188E080830E943E1C96
:103B20000F90DF91CF91FF91EF91BF91AF919F9156
:103B30008F917F916F915F914F913F912F911F9145
:103B40000F91FF90EF900F900FBE0F901F90189560
:103B50000F931F93CF93DF93843091050CF0A9C08E
:103B60002AE0289FF001299FF00D1124EB5FFE4F02
:103B700020813181232B09F49CC0EC01F894529AE6
:103B80005A9885E08A95F1F700008C2F869585700C
:103B90009C2F9570890F982F9370869586958E012E
:103BA00023E0000F111F2A95E1F7890F082B0E94CF
:103BB000461CA4E0AA95F1F700C068E0802F0E949F
:103BC000A71CB0E1BA95F1F752985A9A4A9902C0E7
:103BD00000C0FCCF87E090E04A9B17C0019799F4A2
:103BE000529A5A9A8AE08C9FF0018D9FF00D112411
:103BF000EB5FFE4F0190F081E02D81E080837894AF
:103C000081E090E058C000C0E7CF8AE08C9F80013F
:103C10008D9F100D11240B5F1E4FF80165816623E7
:103C2000B9F08091AA019091AB0126813781820F72
:103C3000931F0E94741C81110BC0529A5A9AD8018A
:103C4000ED91FC9182E08083789482E090E033C033
:103C50000E943E1CB0E2BA95F1F75A98529AE0E100
:103C6000EA95F1F78AE08C9FF0018D9FF00D112409
:103C7000EB5FFE4F6281662351F08091AA01909123
:103C8000AB0123813481820F931F0E94C71C0E94C5
:103C9000461C8AE08C9FF0018D9FF00D1124EB5F94
:103CA000FE4F0190F081E02D1082789480E090E04A
:103CB00002C084E090E0DF91CF911F910F910895B1
:103CC0009093AD018093AC0108959093720280931C
:103CD000710208950E942015811103C080916C0229
:103CE0000895E0917102F0917202309721F00190F5
:103CF000F081E02D099480E00895E0917102F09147
:103D00007202309721F00280F381E02D099408952A
:103D1000E0917102F0917202309739F022E0DC01FB
:103D20002C930480F581E02D0994089520916F0271
:103D3000309170022817390771F0909370028093C8
:103D40006F02E0917102F0917202309721F00680CB
:103D5000F781E02D0994089520916D0230916E0253
:103D60002817390771F090936E0280936D02E091ED
:103D70007102F0917202309721F00084F185E02DFC
:103D800009940895FC01329697E080E0915029F063
:103D900021912223D9F38F5FF9CF0895662349F04B
:103DA000FC01329608962191621729F0E817F9076D
:103DB000D1F780E0089581E008959C01FC013296DE
:103DC0009FEF80E04191461789F09F3F19F4411120
:103DD00001C0982F8F5F8630A9F79F3F39F0F90116
:103DE000E90FF11D97FDFA956283089508959C01EE
:103DF0002A5F3F4FFC014281461301C012820196A7
:103E000082179307B9F708950C94DD1E0C94F71EE2
:103E1000029626E0FC0111922A95E9F7089508958B
:103E20000C940F1F83E0809373020C94101F811178
:103E300002C081E001C082E0809373020C94101FE5
:103E40000C94171F81E0809373020C94101F0C9444
:103E5000221F08958091A702843031F10E94D60379
:103E60001092740220E488E190E00FB6F894A895CF
:103E7000809360000FBE2093600083B7817F8460D1
:103E800083BF83B7816083BF7894889583B78E7F23
:103E900083BF0FB6F894A8958091600088618093E5
:103EA0006000109260000FBE089508950C94551F95
:103EB000CF930E94561F0E9495140E94551FC0E088
:103EC0008C2F0E945113811104C0CF5FCA30C1F7FB
:103ED00001C081E0CF9108950E9486080C943F04B0
:103EE0001F920F920FB60F9211248F939F93AF934F
:103EF000BF9380917402811113C080919F029091B1
:103F0000A002A091A102B091A2024196A11DB11DF3
:103F100080939F029093A002A093A102B093A2026B
:103F2000BF91AF919F918F910F900FBE0F901F90F7
:103F3000189582E084BD93E095BD9AEF97BD80937C
:103F40006E0008952FB7F89480919F029091A0027F
:103F5000A091A102B091A2022FBF08952FB7F894AB
:103F600060919F027091A0028091A1029091A202A3
:103F70002FBF08959C014FB7F89480919F029091B4
:103F8000A002A091A102B091A2024FBF821B930B8D
:103F90000895CF92DF92EF92FF922FB7F894C090DE
:103FA0009F02D090A002E090A102F090A2022FBF49
:103FB000A7019601261B370B480B590BCA01B90103
:103FC000FF90EF90DF90CF90089578941F920F921A
:103FD0000FB60F9211248F939F93AF93BF9380914D
:103FE0009F029091A002A091A102B091A20201961D
:103FF000A11DB11D80939F029093A002A093A102E6
:10400000B093A202BF91AF919F918F910F900FBE7D
:104010000F901F90189581E08093E00080E28093DC
:10402000D8001092C9008FE19EE40197F1F700C01B
:10403000000087E090EBDC018093B0029093B10226
:10404000A093B202B093B3029CE088E10FB6F8945B
:10405000A895809360000FBE90936000FFCF809181
:1040600080020895089522E02093E9002FEF309117
:10407000E800215035FD06C035ED3A95F1F7000016
:104080002111F5CF2091E80025FF0BC040E050E062
:1040900066E070E00E945D228091E8008E77809358
:1040A000E8000895CF93DF9321E02093E9002FEFFC
:1040B0003091E800215035FD06C035ED3A95F1F715
:1040C00000002111F5CF2091E80025FF14C0EC017C
:1040D00040E050E068E070E00E945D228091E800DE
:1040E0008E778093E80088E0FE01A8E7B2E00190B7
:1040F0000D928A95E1F7DF91CF9108958093750233
:1041000070937702609376028091A702843001F564
:1041100082E08093E9008FEF9091E800815095FD57
:1041200006C095ED9A95F1F700008111F5CF8091C9
:10413000E80085FF0DC040E050E063E070E085E7F7
:1041400092E00E945D228091E8008E778093E800E3
:104150000895BC0184E00C947E20BC0183E00C94A3
:104160007E208091A602811109C00E94EE230E9448
:104170004B248091E20084608093E20008951092C5
:10418000A60208950C94271F6091A30281E061119B
:1041900001C080E00C94121F9091A70281E094303E
:1041A00009F080E06091A3020C94171F42E061ECDB
:1041B00081E00E94672342E261EC82E00E94672373
:1041C0009091A70281E0943009F080E06091A30211
:1041D0000C94201F8091A902833009F461C030F44F
:1041E000813071F0823009F49AC008958A3009F460
:1041F00086C08B3009F46CC0893009F0A8C020C09B
:104200008091A802813A09F0A2C08091E800877FDE
:104210008093E8008091AC029091AD02892B21F44B
:1042200068E088E792E003C060E080E090E070E042
:104230000E94A8228091E8008B778093E80008957F
:104240008091A802813209F082C08091AC029091E5
:10425000AD02029708F07BC08091E800877F8093D1
:10426000E8008091E80082FD05C08091A7028111DD
:10427000F8CF6DC02091F3008091F20090E0922B76
:10428000029731F48091F100813011F0863021F4F1
:104290008091F100809380028091E8008B7753C079
:1042A0008091A802813A09F052C08091AC029091AD
:1042B000AD02892B09F04BC08091E800877F809385
:1042C000E8008091E80080FFFCCF8091370136C084
:1042D0008091A8028132D9F58091AC029091AD0213
:1042E000892BA9F58091E800877F8093E8000E94E0
:1042F0009C238091AA02809337010C9486088091B8
:10430000A802813221F58091E800877F8093E80040
:104310000E949C238091AB0280938102089580913A
:10432000A802813AA1F48091E800877F8093E80099
:104330008091E80080FFFCCF809181028093F100A2
:104340008091E8008E778093E8000C949C23089578
:1043500084B7877F84BF0FB6F894A89580916000DA
:10436000886180936000109260000FBE90E080E84A
:104370000FB6F89480936100909361000FBE0C9487
:10438000221F0E94EE230E944B24E2EEF0E0808187
:104390008460808378940C94E0268BE291E00C9406
:1043A000651E8091A7028530A9F48091A70285300F
:1043B00079F40E942A1F8091A5028823B1F30E94FC
:1043C000581F882391F30E9447220E948608EDCF50
:1043D0000C946C1F089508950C94EE21292F332717
:1043E00023303105C9F060F42130310581F02230ED
:1043F000310509F044C08BE390E02EE535E043C081
:1044000021323105E1F02232310549F138C082E133
:1044100090E029E935E037C099278130910549F0CE
:1044200028F0029761F5E4E3F5E005C0EAE5F5E080
:1044300002C0E4E4F5E0849190E09F0124C061159E
:10444000710541F061307105D1F489E090E029E80F
:1044500035E019C089E090E020E735E014C061152F
:10446000710541F06130710551F48BE790E02BEA62
:1044700035E009C080E490E026E236E004C080E048
:1044800090E020E030E0FA0131832083089580E15C
:1044900089BD82E189BD09B400FEFDCF8091D800BD
:1044A0008F7D8093D8008091E00082608093E0004F
:1044B0008091E00081FDFCCF0895CF92DF92EF92D2
:1044C000FF920F931F93CF93DF93EC018B017A013F
:1044D0000E94BB23811133C0E114F10439F0F701CC
:1044E00080819181081B190BC80FD91FC12CD12CB9
:1044F0000115110519F18091E80085FD16C0809124
:10450000E8008E778093E800E114F10449F0F701A8
:1045100080819181C80ED91ED182C08285E00FC0F2
:104520000E94BB23882321F30AC089918093F10064
:1045300001501109FFEFCF1ADF0ADACF80E0DF91D7
:10454000CF911F910F91FF90EF90DF90CF90089542
:104550002091AE023091AF022617370748F061155F
:10456000710539F42091E8002E772093E80001C00E
:10457000B901FC0120E06115710579F18091A70274
:104580008823F1F18530F1F18091E80083FD3CC092
:104590008091E80082FD2EC08091E80080FFEBCF83
:1045A0002091F3008091F20090E0922B611571054B
:1045B00051F08830910538F421912093F100615039
:1045C00071090196F3CF21E0089709F020E080916E
:1045D000E8008E778093E800CECF2111CFCF0AC0BC
:1045E0008091A702882361F0853061F08091E80016
:1045F00083FD0AC08091E80082FFF2CF80E0089539
:1046000082E0089583E0089581E008952091AE024C
:104610003091AF022617370748F06115710539F45C
:104620002091E8002E772093E80001C0B901FC0139
:1046300020E06115710591F18091A702882309F4AA
:1046400040C0853009F43FC08091E80083FD3DC043
:104650008091E80082FD2FC08091E80080FFE9CFC3
:104660002091F3008091F20090E0922B611571058A
:1046700059F08830910540F424912093F10031964F
:10468000615071090196F2CF21E0089709F020E00E
:104690008091E8008E778093E800CBCF2111CCCFBA
:1046A0000AC08091A702882361F0853061F0809173
:1046B000E80083FD0AC08091E80082FFF2CF80E02D
:1046C000089582E0089583E0089581E00895982F89
:1046D000973068F59093E900981739F07091EC00E5
:1046E0002091ED005091F00003C0242F762F50E070
:1046F00021FD02C09F5FECCF3091EB003E7F3093F5
:10470000EB003091ED003D7F3093ED003091EB00F8
:1047100031603093EB007093EC002093ED005093E8
:10472000F0002091EE0027FDE5CF80E008958F7026
:104730008093E90081E008958091A80287FF11C06D
:104740008091E80082FD05C08091A7028111F8CF19
:1047500011C08091E8008B770BC08091A70288235D
:1047600049F08091E80080FFF8CF8091E8008E77D3
:104770008093E80008952091E4003091E50095E6EB
:104780004091EC00842F817040FF23C08091E800AD
:1047900080FD1DC08091A702882399F0853099F093
:1047A0008091EB0085FD11C04091E4005091E5003F
:1047B0002417350729F3915011F09A01E1CF84E0D5
:1047C000089582E0089583E0089581E0089580E0EF
:1047D00008954091E80042FFDDCF08950E945C24D7
:1047E0000E946424E0EEF0E0808181608083E8ED47
:1047F000F0E080818F77808319BCA7EDB0E08C91C9
:104800008E7F8C9380818F7E80831092A602089584
:104810000F931F93CF93DF930E945C240E94642424
:10482000C8EDD0E088818F7788838881806888830D
:1048300088818F7D888319BC1092A7021092A302F1
:104840001092A5021092A40200EE10E0F8018081FF
:104850008B7F808388818160888342E060E080E094
:104860000E946723E1EEF0E080818E7F8083E2EE9C
:10487000F0E0808181608083808188608083F8019E
:1048800080818E7F8083888180618883DF91CF9152
:104890001F910F910895E8EDF0E080818F7E808375
:1048A000E7EDF0E080818160808384E082BF81E079
:1048B0008093A6020C940824E8EDF0E080818E7FBE
:1048C00080831092E20008951092DA001092E100C5
:1048D00008951F920F920FB60F9211242F933F93BA
:1048E0004F935F936F937F938F939F93AF93BF93F8
:1048F000EF93FF938091E10082FF0BC08091E20073
:1049000082FF07C08091E1008B7F8093E1000E94CD
:10491000DF268091DA0080FF1FC08091D80080FFE1
:104920001BC08091DA008E7F8093DA008091D900DD
:1049300080FF0DC080E189BD82E189BD09B400FE20
:10494000FDCF81E08093A7020E94B12005C019BC71
:104950001092A7020E94BF208091E10080FF19C041
:104960008091E20080FF15C08091E2008E7F8093ED
:10497000E2008091E20080618093E2008091D800A3
:1049800080628093D80019BC85E08093A7020E94C2
:10499000C4208091E10084FF30C08091E20084FF58
:1049A0002CC080E189BD82E189BD09B400FEFDCF44
:1049B0008091D8008F7D8093D8008091E1008F7E18
:1049C0008093E1008091E2008F7E8093E2008091ED
:1049D000E20081608093E2008091A302882311F0BD
:1049E00084E007C08091E30087FD02C081E001C040
:1049F00083E08093A7020E94CC208091E10083FF96
:104A000029C08091E20083FF25C08091E100877F6B
:104A10008093E10082E08093A7021092A30280912C
:104A2000E1008E7F8093E1008091E2008E7F809391
:104A3000E2008091E20080618093E20042E060E069
:104A400080E00E9467238091F00088608093F000EE
:104A50000E94C220FF91EF91BF91AF919F918F91E2
:104A60007F916F915F914F913F912F910F900FBE6A
:104A70000F901F9018951F920F920FB60F9211244E
:104A80002F933F934F935F936F937F938F939F9356
:104A9000AF93BF93CF93DF93EF93FF93C091E90060
:104AA000CF708091EC00D82FD17080FDD0E81092AB
:104AB000E9008091F000877F8093F00078940E9455
:104AC0007F251092E9008091F00088608093F000CB
:104AD000CD2BCF70C093E900FF91EF91DF91CF9183
:104AE000BF91AF919F918F917F916F915F914F9106
:104AF0003F912F910F900FBE0F901F9018951F930D
:104B0000CF93DF93CDB7DEB7AA970FB6F894DEBF89
:104B10000FBECDBFE8EAF2E08091F100819322E080
:104B2000E03BF207C9F70E94EA208091E80083FF8A
:104B30002EC18091A8029091A902492F50E04A30DD
:104B4000510508F024C1FA01EC58FF4F0C942127BD
:104B5000803821F0823809F01AC108C08091A4027F
:104B60009091A502992389F082600FC08091AC02D8
:104B70008F70873008F00BC18093E9008091EB00C3
:104B800085FB882780F91092E9009091E800977FD3
:104B90009093E8008093F1001092F100D1C0282F8B
:104BA0002D7F09F0F4C0882319F0823061F0EFC046
:104BB0008091AA02813009F0EAC0933009F080E0C8
:104BC0008093A5022EC08091AA0281112AC08091F3
:104BD000AC028F702FEF280F263008F0D8C08093DA
:104BE000E9002091EB0020FF1CC0933021F480915C
:104BF000EB00806214C09091EB0090619093EB0009
:104C000021E030E0A90102C0440F551F8A95E2F768
:104C10004093EA001092EA008091EB008860809354
:104C2000EB001092E9008091E800877F8093E80014
:104C30000E949C23ACC08111AAC01091AA021F77C8
:104C40008091E3008078812B8093E3008091E800DD
:104C5000877F8093E8000E949C238091E80080FF7A
:104C6000FCCF8091E30080688093E300111102C0C3
:104C700082E001C083E08093A70289C0805882301F
:104C800008F085C08091AA029091AB028C3D53E060
:104C9000950779F583E08A838AE289834FB7F89490
:104CA000DE01139620E03EE051E2E32FF0E0509366
:104CB0005700E49120FF03C0E295EF703F5FEF7073
:104CC0008E2F90E0EA3010F0C79601C0C0968D9309
:104CD0009D932F5F243149F74FBF8091E800877F74
:104CE0008093E8006AE270E0CE0101960E94A8225B
:104CF00016C06091AC027091AD02AE014F5F5F4F84
:104D00000E94EC21BC01892B09F441C09091E8007C
:104D1000977F9093E80089819A810E940623809171
:104D2000E8008B778093E80032C0803881F580916D
:104D3000E800877F8093E8008091A3028093F100D0
:104D40008091E8008E7772CF811121C08091AA02F4
:104D50009091AB0299270297D4F48091E800877F65
:104D60008093E8008091AA028093A3020E949C2372
:104D70008091A302811106C08091E30087FD02C0EB
:104D800081E001C084E08093A7020E94D620809138
:104D9000E80083FF0AC08091E800877F8093E800E5
:104DA0008091EB0080628093EB00AA960FB6F89496
:104DB000DEBF0FBECDBFDF91CF911F910895089543
:104DC000CF938091A7028823A1F0C091E900CF7012
:104DD0009091EC00892F817090FD80E8C82B109293
:104DE000E9008091E80083FD0E947F25CF70C09389
:104DF000E900CF9108950E94EE231092A702089532
:104E0000E8EDF0E08081806180838AE18A95F1F7A6
:104E100000C08091D9008170089597FB072E16F489
:104E2000009407D077FD09D00E94272707FC05D002
:104E30003EF4909581959F4F0895709561957F4FB1
:104E40000895EE0FFF1F0590F491E02D0994AA1B21
:104E5000BB1B51E107C0AA1FBB1FA617B70710F065
:104E6000A61BB70B881F991F5A95A9F78095909597
:104E7000BC01CD010895FB01DC0104C08D910190BE
:104E8000801921F441505040C8F7881B990B0895B0
:104E9000FB01DC0102C001900D9241505040D8F757
:104EA0000895F999FECF92BD81BDF89A992780B5F2
:104EB0000895A8E1B0E042E050E00C948527262F49
:104EC000F999FECF92BD81BDF89A019700B4021600
:104ED00039F01FBA20BD0FB6F894FA9AF99A0FBEAE
:104EE00008950396272F0E9460270E945F27252F91
:104EF0000E946027242F0C9460270196272F0E9480
:104F000060270C945F27DC01CB01FC01F999FECFEF
:104F100006C0F2BDE1BDF89A319600B40D92415041
:0A4F20005040B8F70895F894FFCF51
:104F2A00C8001902019E0200000001000000009E54
:104F3A000200000005010000009E020406000000B5
:104F4A000000002808641E140A321E2F2052203343
:104F5A0020AD20A920322001E200E900EA00B500D4
:104F6A00B600B700CD008301CC008A0192019401FA
:104F7A002102230224022502260227022A02B30062
:104F8A00B4006F007000818283E200E900EA00B594
:104F9A0000B600B700CD008301CC008A01920194CB
:104FAA00012102230224022502260227022A02B331
:104FBA0000B4006F007000818283F6F73133323615
:0C4FCA006697C63435000000000040026D
:00000001FF
